:100000000C942B010C9453010C9453010C94530148
:100010000C9453010C9453010C9453010C94530110
:100020000C9453010C9453010C9495060C94040702
:100030000C9453010C9453010C9453010C945301F0
:100040000C9453010C9453010C9453010C945301E0
:100050000C9453010C9453010C9453010C944B06D3
:100060000C9453010C9453010C9453010C945301C0
:100070000C9453010C9453010C9453010C945301B0
:100080000C9453010C9453010C9453010C945301A0
:100090000C9453010C9453010C9453010C94530190
:1000A0000C9453010C9453010C945301080B00025F
:1000B0000202000009040000010202000005240001
:1000C0001001052401010104240206052406000193
:1000D0000705810310004009040100020A00000026
:1000E00007050202400000070583024000000403E8
:1000F000090412010002EF02014041233780000190
:100100000102030141726475696E6F204C4C43001B
:1001100041726475696E6F204D6963726F000000F3
:100120000000250028002B002E00310000000000F8
:10013000240027002A002D003000000000002300CA
:10014000260029002C002F000404040404030405E5
:100150000202020204030202020206060606060664
:10016000040402020204040408020110408040104A
:1001700020408040800802040180402010020110CD
:100180008010204040200000000200090F00000302
:100190000401000C0000000000000000000000004E
:1001A000000000000000000000000000002A2B28D2
:1001B000000000000000000000000000000000003F
:1001C00000000000002C9EB4A0A1A2A434A6A7A504
:1001D000AE362D3738271E1F20212223242526B393
:1001E00033B62EB7B89F8485868788898A8B8C8D95
:1001F0008E8F909192939495969798999A9B9C9DA7
:100200002F3130A3AD350405060708090A0B0C0D84
:100210000E0F101112131415161718191A1B1C1D86
:10022000AFB1B0B50005010906A1018502050719A6
:10023000E029E715002501750195088102950175F2
:10024000088103950675081500257305071900290F
:10025000738100C0360911241FBECFEFDAE0DEBF84
:10026000CDBF11E0A0E0B1E0E0E9F7E102C0059008
:100270000D92A63BB107D9F722E0A6EBB1E001C091
:100280001D92AC35B207E1F711E0CBE2D1E004C03A
:100290002197FE010E94C00BCA32D107C9F70E9404
:1002A000CE090C94C60B0C940000CF93DF93FC0195
:1002B000818190912B02482F490F5527551F4830B7
:1002C00051059CF5A281B381109709F527E232E030
:1002D0003383228320812093290280932A028091F4
:1002E0002C02820F808320912D02A22FB0912E022A
:1002F0008A2F821B8917E8F481813D91C82FD0E0B5
:10030000CC57DE4F38838F5F8183F2CFD9011896A7
:100310002D913C91199721153105C1F727E232E063
:1003200019963C932E931897D5CF80E0DF91CF910B
:10033000089581E0FBCFFC018091D601882311F163
:100340003FB7F89482E08093E9002091F200822F79
:1003500090E01816190614F481E090E0882339F033
:10036000289A44E64093D5014091F100408322232E
:1003700039F02091F200211103C02BE62093E80010
:100380003FBF08958FEF9FEF0895CF93DF931F92A4
:10039000CDB7DEB76983DC01ED91FC910280F3817A
:1003A000E02D41E050E0BE016F5F7F4F09950F9057
:1003B000DF91CF91089583E08093E9008091F2006E
:1003C000882319F08AE38093E8000895CF93DF93A0
:1003D0001F92CDB7DEB7FC018485958597FD08C0D7
:1003E0002FEF3FEF358724870F90DF91CF9108954E
:1003F000CE0101960E949B01019719F4898190E03A
:10040000F3CF8FEF9FEFF0CF0F931F93CF93DF9337
:100410001F92CDB7DEB78C01FC018485958597FFCF
:100420000BC0CE0101960E949B01019771F4898156
:1004300090E0F80195878487F801848595850F9071
:10044000DF91CF911F910F9108958FEF9FEFF1CF23
:10045000FC018485958597FD0BC09FB7F89482E0D9
:100460008093E9008091F2009FBF90E0019608958B
:100470009FB7F89482E08093E9008091F2009FBFDB
:1004800090E008953FB7F8948091D1019091D20106
:10049000A091D301B091D40126B5A89B05C02F3FF0
:1004A00019F00196A11DB11D3FBFBA2FA92F982F9A
:1004B0008827BC01CD01620F711D811D911D42E095
:1004C000660F771F881F991F4A95D1F70895CF921D
:1004D000DF92EF92FF920E9442026B017C010E9428
:1004E00042026C197D098E099F09683E734081059F
:1004F0009105A8F3FF90EF90DF90CF900895409181
:10050000C4015091C5012091C2013091C30142172D
:100510005307B4F49091E8009570E1F39091E800EE
:1005200092FD19C08093F1008091C4019091C501A2
:1005300001968F739927892B19F48EEF8093E80029
:100540008091C4019091C50101969093C50180935B
:10055000C40181E0089580E00895EF92FF920F9327
:100560001F93CF93DF93F82E192FE62E042F81E0EF
:10057000860F880F0E947F0283E00E947F02CF2DAA
:10058000D12FEC0EFD2EF11CCE15DF05B9F007FFC3
:1005900013C0FE0184910E947F02182F80E00E9408
:1005A0007F02812321968111EFCFDF91CF911F919F
:1005B0000F91FF90EF9008958881EDCF81E0F5CF06
:1005C000DF92EF92FF920F931F93CF93DF93D82E7A
:1005D0008A01EB017B01E40EF51ECE15DF0559F013
:1005E000D7FE12C0FE0184910E947F0221968111E4
:1005F000F4CF0FEF1FEFC801DF91CF911F910F9143
:10060000FF90EF90DF9008958881EECF2FB7F89498
:1006100087708093E9009091E800892F807295FFA0
:1006200004C09091F20080E4891B2FBF089583E0FD
:100630000E94060390E008957F928F929F92AF925E
:10064000BF92CF92DF92EF92FF920F931F93CF93BF
:10065000DF93C82E8B017A018091D601811110C0E1
:100660008FEF9FEFDF91CF911F910F91FF90EF9050
:10067000DF90CF90BF90AF909F908F907F90089524
:100680008091C80180FF05C08091E0008260809366
:10069000E000CE2DDF2DD12C8AEFB82E8C2D877067
:1006A000982E8C2D8072882E8C2D8074782E9AE353
:1006B000A92E209719F4DD2009F44EC08C2D0E943C
:1006C0000603811106C0BA94BB2051F20E94670252
:1006D000F0CF8C171D0611F00CF08C2F9FB7F894FB
:1006E0009092E9002091E80025FD02C09FBFE1CF74
:1006F000282F30E0C21BD30B882029F08150A0F0B6
:100700001092F100FBCFF801C7FC0AC0815050F0F5
:1007100041914093F100FACF44914093F10031961A
:100720008150D0F7020F131FDD2021F0A092E800C6
:10073000D12CDCCF8091E80085FD07C0A092E800B5
:10074000DD24D394209791F2F3CF209779F6772088
:1007500069F2A092E800CACF5D9A84E68093C7014F
:10076000C70180CFCF93DF93EC0180918301882371
:1007700031F083E00E941C031816190634F081E062
:1007800090E09B838A8380E090E0DF91CF91089591
:10079000615030F02091F100FC0120830196F8CFE8
:1007A000289A84E68093D50108958091BA01811139
:1007B0000DC082E08093B60184E08093B70110926F
:1007C000B9011092B80181E08093BA0186EB91E003
:1007D0000895EF92FF921F93CF93DF931F92CDB7AF
:1007E000DEB77C018091380281112AC011E010939C
:1007F0002B0210932C0281E392E090932E028093BF
:100800002D021092300210922F0281EA91E0909313
:100810002802809327021092330210923202109223
:10082000350210923402109336021093370281EC95
:10083000809331020E94D5030E9455011093380223
:1008400082E0898341E050E0BE016F5F7F4F80917D
:100850002A020E941C0397FD08C080912A0248E0EA
:1008600050E0B70180640E941C030F90DF91CF918C
:100870001F91FF90EF9008950F931F93CF93DF93F5
:100880001F92CDB7DEB782E0898342E450E06CEA84
:1008900070E080E80E94E0020E94D503DC0112961D
:1008A0000D911C910115110589F0D801ED91FC9174
:1008B0000280F381E02DBE016F5F7F4FC801099573
:1008C00097FD04C0F80100851185ECCF89810F9058
:1008D000DF91CF911F910F910895DC01FB011296DA
:1008E0002C911297848195812817190641F49181E2
:1008F0008081813A31F49D7F81E0913009F080E080
:1009000008958132E1F79B3029F482811F968C9300
:1009100081E008959A3099F7828150968C93F8CFB0
:10092000DC01FB0188E4808389E4818384E48283A1
:100930001D969C911D979F709F5B93831D968D9133
:100940009C9124E0969587952A95E1F78F708F5BAF
:10095000848385E00895EF92FF920F931F93CF93C6
:10096000DF93FB012081213871F52381223259F573
:10097000DC0112964C91248135814217130619F53A
:10098000EC010B851C85F12CE12C0115110589F07A
:10099000F801448155816281738180E80E94E00200
:1009A0008F3F980749F0E80EF91ED8010D911C9170
:1009B000ECCF81E08F87C701DF91CF911F910F911D
:1009C000FF90EF90089590E080E0F6CFCF93DF9313
:1009D000CDB7DEB769970FB6F894DEBF0FBECDBFB7
:1009E000FC01DB018C918F5F8C939E012D5F3F4F4B
:1009F0008DE0D9011D928A95E9F729E0298384E0E9
:100A00008A8391E09D8383E08E832A8721E22B876E
:100A10009C879D879F8722E2288B27E02B8B25E0F0
:100A20002C8B8E8B20E430E0388F2F8B998F828136
:100A30008B8395858685998B8A8B838180688D8B46
:100A400049E150E0BE016F5F7F4F80E00E94E0020D
:100A500069960FB6F894DEBF0FBECDBFDF91CF9180
:100A60000895CF92DF92EF92FF920F931F93CF934F
:100A7000DF936C01EB017B01E40EF51E10E000E05A
:100A8000CE15DF0581F069916D30D1F3D601ED917E
:100A9000FC910190F081E02DC6010995892B19F098
:100AA0000F5F1F4FEDCFC801DF91CF911F910F91C5
:100AB000FF90EF90DF90CF900895DC016838A0F0B0
:100AC0006858FD0186E0662321F09681961301C0E7
:100AD0001682815031968111F6CFCD0104960E9485
:100AE000E90381E090E00895862F90E067FF13C04E
:100AF000FC01E058F10981E090E001C0880FEA951F
:100B0000EAF7809514969C911497892314968C93F8
:100B1000149760E0D6CF1C96ED91FC911D97E80FDD
:100B2000F91F64916623E1F0862F807C803C69F494
:100B300014968C9114978F7B14968C9314976F73E3
:100B4000623309F0BECF64E6BCCF67FFF9CF1496DD
:100B50008C9114978D7F14968C9314976F77F0CFA8
:100B600090E080E00895DC01683888F168581696B6
:100B70008C911697861721F117968C9117978617E7
:100B8000F9F018968C9118978617D1F019968C91D8
:100B900019978617A9F01A968C911A97861781F0E3
:100BA0001B968C911B97861759F0FD01369690E0A5
:100BB00080E0219121114FC08A0F9B1FFC016683A9
:100BC000CD0104960E94E90381E090E00895862F0C
:100BD00090E067FF12C0FC01E058F10921E030E02D
:100BE00001C0220FEA95EAF714968C911497822B94
:100BF00014968C93149760E0BACF1C96ED91FC91FB
:100C00001D97E80FF91F6491611109C081E090E020
:100C100013969C938E93129790E080E00895862F10
:100C2000807C803C69F414968C91149780641496AF
:100C30008C9314976F73623309F099CF64E697CF62
:100C400067FFF9CF14968C911497826014968C9359
:100C500014976F77F0CF01968630910509F0A9CFF0
:100C6000D5CFEF92FF921F93CF93DF93EC01162F16
:100C70000E94B3057C01612FCE010E945D05C70172
:100C80009927DF91CF911F91FF90EF9008950895DC
:100C900090E080E008951F920F920FB60F921124FA
:100CA0002F933F938F939F93AF93BF938091CD01E9
:100CB0009091CE01A091CF01B091D0013091CC01A3
:100CC00023E0230F2D3758F50196A11DB11D209368
:100CD000CC018093CD019093CE01A093CF01B0932E
:100CE000D0018091D1019091D201A091D301B09116
:100CF000D4010196A11DB11D8093D1019093D20121
:100D0000A093D301B093D401BF91AF919F918F91E4
:100D10003F912F910F900FBE0F901F90189526E8CE
:100D2000230F0296A11DB11DD2CF1F920F920FB6B5
:100D30000F9211248F939F938091E1009091E10095
:100D4000937F9093E10083FF0FC01092E90091E040
:100D50009093EB001092EC0092E39093ED001092D0
:100D6000D60198E09093F00082FF22C093E0909328
:100D7000E9009091F200992319F09AE39093E8002A
:100D80009091C701992341F09091C70191509093A0
:100D9000C701911101C05D989091D501992341F04F
:100DA0009091D50191509093D501911101C028984F
:100DB00084FF18C08091E2008E7E81608093E20003
:100DC0008091E1008F7E8093E1008091C8018E7E4A
:100DD00080618093C8019F918F910F900FBE0F90FB
:100DE0001F90189580FFF7CF8091E2008E7E806182
:100DF0008093E2008091E1008E7E8093E1008091FB
:100E0000C8018E7E8160E5CF1F920F920FB60F92C0
:100E10001124CF92DF92EF92FF920F931F932F93A3
:100E20003F934F935F936F937F938F939F93AF9372
:100E3000BF93EF93FF93CF93DF93CDB7DEB76C975C
:100E4000DEBFCDBF1092E9008091E80083FF25C08E
:100E500068E0CE0145960E94C80382EF8093E800C7
:100E60008D8987FF39C09091E80090FFFCCF982FC3
:100E7000907609F034C19E894F89588D2F89F88C5E
:100E8000911131C0803861F58091C9018093F100E2
:100E90001092F1008EEF8093E8006C960FB6F894F4
:100EA000DEBF0FBECDBFDF91CF91FF91EF91BF911C
:100EB000AF919F918F917F916F915F914F913F91F2
:100EC0002F911F910F91FF90EF90DF90CF900F9097
:100ED0000FBE0F901F9018959EEF9093E800C7CF1C
:100EE0001092F100D5CF913059F48111D3CF413018
:100EF000510581F68091C9018D7F8093C901CACFC8
:100F0000933049F48111C6CF4130510519F68091D3
:100F1000C9018260F2CF953041F48091E80080FFF2
:100F2000FCCF20682093E300B5CF963009F0A9C02C
:100F30000B8D1C8D22E01092E9001092C5011092D9
:100F4000C401F2122EC01092C3011092C2010E947D
:100F50003C041F8299E09983FA8291E09E8390EA93
:100F600098879AEF99872091C4013091C501275F36
:100F70003F4F3C832B838D831092E9001092C50173
:100F80001092C4011093C3010093C20149E050E0E4
:100F9000BE016F5F7F4F80E00E94E0020E943C0430
:100FA00079CF1093C3010093C2010E94D503DC01E5
:100FB00012960D911C910115110509F451C1D8012A
:100FC000ED91FC910480F581E02DBE016B5E7F4FB9
:100FD000C8010995009709F03EC1F8010085118507
:100FE000EACFF3E0FF120EC08F89882309F440C0D6
:100FF000823061F440E86DE080E191E00E94AD0252
:10100000811148CF81E28093EB0047CF813029F4F2
:1010100040E86BE084E091E0F1CF833099F70E94E3
:10102000D503DC011296ED90FC908E010F5F1F4FEF
:101030006801E114F10479F0D701ED91FC9106808B
:10104000F781E02DB801C7010995080F111DF701BF
:10105000E084F184EECFD8011C92F60101900020CB
:10106000E9F73197BF016C197D0940E0C601C6CF91
:101070006EEE70E0FB01449150E080E80E94E002D7
:1010800009CF973009F4BECF983021F481E08093E6
:10109000F10000CF993009F0FDCE837009F0B2CF96
:1010A000E5E8F1E081E031E096E32191222371F05F
:1010B0008093E9003093EB00DF0111972C9120938E
:1010C000EC009093ED008F5F873079F78EE7809387
:1010D000EA001092EA008F898093D601DBCE8B8DD7
:1010E0009C8D1092E9001092C5011092C40190935A
:1010F000C3018093C201898D811192C08E899D891F
:10110000913A49F4813209F07DCF47E050E06CE735
:1011100071E080E0B3CF913209F074CF833269F48B
:101120008F89988DB0E0A0E0809300019093010139
:10113000A0930201B0930301ADCE803269F4809197
:10114000E80082FFFCCF67E08CE791E00E94C803D3
:101150008BEF8093E8009ECE823209F09BCE8F8980
:1011600080938301EEEFFFE7859194918B3F9C4D37
:1011700051F1E0E0F8E080917C0190917D01A09137
:101180007E01B0917F01803B9440A105B105F1F44F
:101190008091830180FD1AC0EE3F8AE0F80789F54F
:1011A00087E797E791838083809160008093C601F1
:1011B00088E19BE00FB6F894A895809360000FBE7D
:1011C0009093600067CEEEEFFAE0D5CF80819181F9
:1011D0008737974709F05ECEA895809160008861B7
:1011E000809360008091C60180936000EE3F2AE00A
:1011F000F20789F08091FE0A9091FF0A9183808323
:1012000049CE808191818737980751F29093FF0AE8
:101210008093FE0AC5CF1092FF0A1092FE0A3ACEC2
:101220000E94D503DC0112960D911C910115110548
:1012300009F4E8CED801ED91FC910190F081E02D08
:10124000BE016B5E7F4FC8010995811123CEF80165
:1012500000851185EBCF181619060CF41BCED2CEE3
:10126000F1E0FF12BECE62EF70E004CFCF93109298
:10127000DA011092D90188EE93E0A0E0B0E080930B
:10128000DB019093DC01A093DD01B093DE018FE8D8
:1012900091E09093D8018093D7018FEF9FEF9093C7
:1012A000E4018093E30110925102109250028DEA02
:1012B00091E090934F0280934E02809146028111FB
:1012C00013C0109241021092400285E292E0909386
:1012D0004302809342028FE290E090934502809314
:1012E000440281E0809346028091380281112AC035
:1012F000C1E0C0932B02C0932C0281E392E0909353
:101300002E0280932D021092300210922F0281EA59
:1013100091E090932802809327021092330210925A
:1013200032021092350210923402C0933602C093FA
:10133000370281EC809331020E94D5030E9455014F
:10134000C0933802E0913202F09133023097E9F411
:1013500080E492E0909333028093320280913402D1
:10136000909135022091440230914502820F931FE3
:10137000909335028093340285EA91E090935B026A
:1013800080935A02CF910895FC018081918100974A
:10139000D9F780E492E091838083E0CF789484B59C
:1013A000826084BD84B5816084BD85B5826085BD61
:1013B00085B5816085BD80916E00816080936E00EF
:1013C00010928100809181008260809381008091E1
:1013D0008100816080938100809180008160809392
:1013E00080008091910082608093910080919100B3
:1013F0008160809391008091900081608093900043
:101400008091C10084608093C1008091C10082609E
:101410008093C1008091C10081608093C100809160
:10142000C30081608093C3008091C000826080937C
:10143000C0008091C20081608093C20080917A00D8
:10144000846080937A0080917A00826080937A0031
:1014500080917A00816080937A0080917A00806820
:1014600080937A001092D6011092C9011092C8019F
:101470008091D70081608093D70080EA8093D80064
:1014800089B5806189BD89B5826089BD09B400FED6
:10149000FDCF0E9467028091D8008F7C806180938D
:1014A000D8008091E000807F8093E0008091E1008F
:1014B0008E7E8093E1008DE08093E200559A209A21
:1014C0005D9828981092CB011092CA018091CA01B0
:1014D0009091CB018F30910508F037C0F3E0880F71
:1014E000991FFA95E1F7FC01EC5FFE4F8081918135
:1014F0009927FC01E959FE4F2491885B9E4FFC011E
:1015000084918823C1F090E0880F991FFC01E45D6D
:10151000FE4FC591D491FC01E25EFE4FA591B491BE
:101520009FB7F8943881822F809583238883EC912C
:10153000E22BEC939FBF8091CA019091CB01019661
:101540009093CB018093CA01C1CF85EA91E090933B
:101550005B0280935A02CCE7D1E00FE010E070E02C
:10156000E72E70E0F72E1092CB011092CA01809105
:10157000CA019091CB018F30910508F08CC063E0D7
:10158000880F991F6A95E1F7FC01EC5FFE4F2081FF
:1015900031813327F901EA57FE4F8491F901E95966
:1015A000FE4F9491285B3E4FF9012491222309F4C8
:1015B0006FC08823E9F081508F30D0F4E82FF0E03D
:1015C000EC51F54F0C94C00B230B270BF30A1B0BAC
:1015D0001F0BF80AF80AF80A2A0B300B340B380BE9
:1015E0003E0BF80A420B809180008F778093800039
:1015F000E22FF0E0EE0FFF1FE65CFE4FA591B491E5
:10160000EC91E92391E080E009F490E02091CA0197
:101610003091CB01F90143E0EE0FFF1F4A95E1F74E
:10162000EC5FFE4F948385832F5F3F4F3093CB0158
:101630002093CA019CCF809180008F7DD7CF80916D
:101640008000877FD3CF84B58F7784BDD1CF84B519
:101650008F7DFBCF809190008F7780939000C8CFD3
:10166000809190008F7DF9CF80919000877FF5CF9A
:101670008091C0008F778093C000BACF8091C00066
:101680008F7DF9CF8091C200877F8093C200B0CF59
:1016900090E080E0BBCF8091100190911101892BE7
:1016A00009F051C081E020910801309109012130F9
:1016B000310509F480E090E09093110180931001CE
:1016C0008091180190911901209120013091210100
:1016D000009739F42115310521F481E090E021E0F3
:1016E00030E03093210120932001909319018093E1
:1016F00018011092CB011092CA01C090CA01D0907B
:10170000CB01FFE0CF16D10428F5F60183E0EE0F00
:10171000FF1F8A95E1F7EC5FFE4F8481958126815A
:1017200037818217930739F06281892B71F48EE437
:1017300092E00E94B3058FEFC81AD80AD092CB016D
:10174000C092CA01DACF81E0B6CF8EE492E00E9467
:101750005D05F1CFE4E0F1E0CE17DF0731F08481E1
:101760009581978386833896F7CF1093CB010093AA
:10177000CA01E114F10409F4F6CE0E940000F3CE90
:10178000EE0FFF1F0590F491E02D0994F894FFCF20
:10179000FFFFFFFF10007700010001000900730048
:1017A000010001000A00610001000100080064005E
:1017B0000100010003007500010001000200690042
:1017C0000100010007006A000100010006006B0033
:1017D0000100010000006F000100010005006C0025
:1017E00001000100010070000100010004003B0045
:1017F0000100010013000A000100010014005C0058
:1018000001000100150008000100010000E10000D6
:101810000000000000C1808100000000000000C541
:1018200001B2031703DB012802E6010402000000F5
:10183000006D04E604AB04900400000000310631A2
:0618400005480647060002
:00000001FF
