:100000000C942B010C9453010C9453010C94530148
:100010000C9453010C9453010C9453010C94530110
:100020000C9453010C9453010C94D9060C9448077A
:100030000C9453010C9453010C9453010C945301F0
:100040000C9453010C9453010C9453010C945301E0
:100050000C9453010C9453010C9453010C948F068F
:100060000C9453010C9453010C9453010C945301C0
:100070000C9453010C9453010C9453010C945301B0
:100080000C9453010C9453010C9453010C945301A0
:100090000C9453010C9453010C9453010C94530190
:1000A0000C9453010C9453010C945301080B00025F
:1000B0000202000009040000010202000005240001
:1000C0001001052401010104240206052406000193
:1000D0000705810310004009040100020A00000026
:1000E00007050202400000070583024000000403E8
:1000F000090412010002EF02014041233780000190
:100100000102030141726475696E6F204C4C43001B
:1001100041726475696E6F204D6963726F000000F3
:1001200000002300260029002C002F000000000200
:1001300000090F0000030401000C00000000000093
:10014000000000000000000000000000000000258A
:100150000028002B002E00310000000000240027A2
:10016000002A002D003000040404040403040502E6
:100170000202020403020202020606060606060442
:10018000040202020404040802011040804010200E
:10019000408040800802040180402010020110804D
:1001A000102040402000000000000000002A2B2802
:1001B000000000000000000000000000000000003F
:1001C00000000000002C9EB4A0A1A2A434A6A7A504
:1001D000AE362D3738271E1F20212223242526B393
:1001E00033B62EB7B89F8485868788898A8B8C8D95
:1001F0008E8F909192939495969798999A9B9C9DA7
:100200002F3130A3AD350405060708090A0B0C0D84
:100210000E0F101112131415161718191A1B1C1D86
:10022000AFB1B0B50005010906A1018502050719A6
:10023000E029E715002501750195088102950175F2
:10024000088103950675081500257305071900290F
:10025000738100C0AD0911241FBECFEFDAE0DEBF0D
:10026000CDBF11E0A0E0B1E0EAEAF7E102C00590FD
:100270000D92AC35B107D9F722E0ACE5B1E001C091
:100280001D92A030B207E1F711E0CBE2D1E004C04B
:100290002197FE010E94CD0BCA32D107C9F70E94F7
:1002A000450A0C94D30B0C940000CF93DF9390E09D
:1002B000FC01EA57FE4F249189599E4FFC0184911D
:1002C0008823C1F090E0880F991FFC01E75AFE4F88
:1002D000C591D491FC01E55BFE4FA591B4919FB708
:1002E000F8943881822F809583238883EC91E22BC8
:1002F000EC939FBFDF91CF910895CF93DF93FC01E3
:1003000081819091CF01482F490F5527551F4830C3
:1003100051059CF5A281B381109709F52BEC31E0D2
:100320003383228320812093CD018093CE0180915D
:10033000D001820F80832091D101A22FB091D201F0
:100340008A2F821B8917E8F481813D91C82FD0E064
:10035000C45FDE4F38838F5F8183F2CFD901189657
:100360002D913C91199721153105C1F72BEC31E006
:1003700019963C932E931897D5CF80E0DF91CF91BB
:10038000089581E0FBCFFC0180917A01882311F16F
:100390003FB7F89482E08093E9002091F200822F29
:1003A00090E01816190614F481E090E0882339F0E3
:1003B000289A44E6409379014091F100408322233A
:1003C00039F02091F200211103C02BE62093E800C0
:1003D0003FBF08958FEF9FEF0895282F30E0F90178
:1003E000E45DFE4F9491F901EA57FE4F849129593B
:1003F0003E4FF9012491222309F45BC09923E9F0CF
:1004000091509F30D0F4E92FF0E0E75FFD4F0C945E
:10041000CD0B3402380218022C0230021D021D02DC
:100420001D023B024102450249024F021D025302D6
:10043000909180009F7790938000E22FF0E0EE0F84
:10044000FF1FE25EFE4FA591B491EC91E82381E09D
:1004500090E089F580E00895909180009F7DEBCF3A
:1004600090918000977FE7CF94B59F7794BDE5CFBB
:1004700094B59F7DFBCF909190009F7790939000D3
:10048000DCCF909190009F7DF9CF90919000977F65
:10049000F5CF9091C0009F779093C000CECF909100
:1004A000C0009F7DF9CF9091C200977F9093C200CA
:1004B000C4CF80E090E008953FB7F8948091750133
:1004C00090917601A0917701B091780126B5A89B13
:1004D00005C02F3F19F00196A11DB11D3FBFBA2FD6
:1004E000A92F982F8827BC01CD01620F711D811D96
:1004F000911D42E0660F771F881F991F4A95D1F71B
:100500000895CF92DF92EF92FF920E945C026B01FE
:100510007C010E945C026C197D098E099F09683E6E
:10052000734081059105A8F3FF90EF90DF90CF9085
:10053000089540916A0150916B01209168013091BA
:10054000690142175307B4F49091E8009570E1F304
:100550009091E80092FD19C08093F10080916A01AA
:1005600090916B0101968F739927892B19F48EEF67
:100570008093E80080916A0190916B0101969093BD
:100580006B0180936A0181E0089580E00895DF9215
:10059000EF92FF920F931F93CF93DF93D82E8A0190
:1005A000EB017B01E40EF51ECE15DF0559F0D7FEF9
:1005B00012C0FE0184910E94990221968111F4CF0C
:1005C0000FEF1FEFC801DF91CF911F910F91FF90A7
:1005D000EF90DF9008958881EECF2FB7F894877061
:1005E0008093E9009091E800892F807295FF04C004
:1005F0009091F20080E4891B2FBF08957F928F9223
:100600009F92AF92BF92CF92DF92EF92FF920F93A1
:100610001F93CF93DF93C82E8B017A0180917A01CB
:10062000811110C08FEF9FEFDF91CF911F910F913C
:10063000FF90EF90DF90CF90BF90AF909F908F9002
:100640007F90089580916E0180FF05C08091E00049
:1006500082608093E000CE2DDF2DD12C8AEFB82E62
:100660008C2D8770982E8C2D8072882E8C2D807406
:10067000782E9AE3A92E209719F4DD2009F44EC0B4
:100680008C2D0E94ED02811106C0BA94BB2051F25C
:100690000E948102F0CF8C171D0611F00CF08C2FF8
:1006A0009FB7F8949092E9002091E80025FD02C0E0
:1006B0009FBFE1CF282F30E0C21BD30B882029F049
:1006C0008150A0F01092F100FBCFF801C7FC0AC0E6
:1006D000815050F041914093F100FACF4491409302
:1006E000F10031968150D0F7020F131FDD2021F069
:1006F000A092E800D12CDCCF8091E80085FD07C0F6
:10070000A092E800DD24D394209791F2F3CF2097B4
:1007100079F6772069F2A092E800CACF5D9A84E664
:1007200080936D01C70180CF615030F02091F100BE
:10073000FC0120830196F8CF289A84E68093790102
:1007400008958091600181110DC082E080935C0169
:1007500084E080935D0110925F0110925E0181E060
:10076000809360018CE591E00895EF92FF921F93D2
:10077000CF93DF931F92CDB7DEB77C018091DC0170
:1007800081112AC011E01093CF011093D00185EDA3
:1007900091E09093D2018093D1011092D4011092F4
:1007A000D30189E291E09093CC018093CB01109228
:1007B000D7011092D6011092D9011092D80110934E
:1007C000DA011093DB0181EC8093D5010E94A10333
:1007D0000E947D011093DC0182E0898341E050E0BA
:1007E000BE016F5F7F4F8091CE010E94FE0297FD98
:1007F00008C08091CE0148E050E0B70180640E94BB
:10080000FE020F90DF91CF911F91FF90EF9008951E
:100810000F931F93CF93DF931F92CDB7DEB782E084
:10082000898342E450E06CEA70E080E80E94C702ED
:100830000E94A103DC0112960D911C910115110576
:1008400089F0D801ED91FC910280F381E02DBE0189
:100850006F5F7F4FC801099597FD04C0F8010085BF
:100860001185ECCF89810F90DF91CF911F910F916E
:100870000895CF93DF93EC0180910B01882331F031
:1008800083E00E94FE021816190634F081E090E021
:100890009B838A8380E090E0DF91CF910895CF938E
:1008A000DF931F92CDB7DEB76983DC01ED91FC9138
:1008B0000280F381E02D41E050E0BE016F5F7F4F89
:1008C00009950F90DF91CF91089583E08093E9001F
:1008D0008091F200882319F08AE38093E80008955C
:1008E00083E00E94ED0290E00895CF93DF931F9282
:1008F000CDB7DEB7FC018485958597FD08C02FEF45
:100900003FEF358724870F90DF91CF910895CE0177
:1009100001960E94C301019719F4898190E0F3CFF9
:100920008FEF9FEFF0CF0F931F93CF93DF931F9223
:10093000CDB7DEB78C01FC018485958597FF0BC090
:10094000CE0101960E94C301019771F4898190E064
:10095000F80195878487F801848595850F90DF914C
:10096000CF911F910F9108958FEF9FEFF1CFFC0171
:100970008485958597FD0BC09FB7F89482E080939E
:10098000E9008091F2009FBF90E0019608959FB723
:10099000F89482E08093E9008091F2009FBF90E09C
:1009A0000895DC01FB0112962C91129784819581A8
:1009B0002817190641F491818081813A31F49D7F95
:1009C00081E0913009F080E008958132E1F79B30B9
:1009D00029F482811F968C9381E008959A3099F7CB
:1009E000828150968C93F8CFDC01FB0188E48083F0
:1009F00089E4818384E482831D969C911D979F7076
:100A00009F5B93831D968D919C9124E0969587958D
:100A10002A95E1F78F708F5B848385E00895EF92CC
:100A2000FF920F931F93CF93DF93FB012081213817
:100A300071F52381223259F5DC0112964C91248103
:100A400035814217130619F5EC010B851C85F12C35
:100A5000E12C0115110589F0F8014481558162816D
:100A6000738180E80E94C7028F3F980749F0E80E23
:100A7000F91ED8010D911C91ECCF81E08F87C70141
:100A8000DF91CF911F910F91FF90EF90089590E02B
:100A900080E0F6CFCF93DF93CDB7DEB769970FB67F
:100AA000F894DEBF0FBECDBFFC01DB018C918F5FE0
:100AB0008C939E012D5F3F4F8DE0D9011D928A9549
:100AC000E9F729E0298384E08A8391E09D8383E02C
:100AD0008E832A8721E22B879C879D879F8722E22E
:100AE000288B27E02B8B25E02C8B8E8B20E430E0AD
:100AF000388F2F8B998F82818B8395858685998BF3
:100B00008A8B838180688D8B49E150E0BE016F5FE5
:100B10007F4F80E00E94C70269960FB6F894DEBF4F
:100B20000FBECDBFDF91CF910895CF92DF92EF92AC
:100B3000FF920F931F93CF93DF936C01EB017B0127
:100B4000E40EF51E10E000E0CE15DF0581F069919E
:100B50006D30D1F3D601ED91FC910190F081E02D43
:100B6000C6010995892B19F00F5F1F4FEDCFC80102
:100B7000DF91CF911F910F91FF90EF90DF90CF9079
:100B80000895EF92FF921F93CF93DF93EC01162FFE
:100B9000E8E7E60F683888F4862F90E067FF50C0DA
:100BA000FC01E058F10921E030E001C0220FEA9594
:100BB000EAF78C81822B8C83E0E08E818E17D9F04E
:100BC0008F81E817C1F08885E817A9F08985E817B3
:100BD00091F08A85E81779F08B85E81761F0DE01DE
:100BE000169690E080E02D9121115EC08C0F9D1F24
:100BF000DC011696EC93CE0104960E94B503EE2418
:100C0000E394F12C183848F11858DE0186E01123DE
:100C100041F016969C911697191303C016961C92D4
:100C20001697815011968111F2CFCE0104960E9441
:100C3000B503C701DF91CF911F91FF90EF90089509
:100C4000EC85FD85E80FF91FE491E11119C081E001
:100C500090E09B838A83F12CE12C812F90E017FF99
:100C60002FC0FC01E058F10981E090E001C0880F3D
:100C7000EA95EAF780959C8189238C8310E0C5CFA3
:100C80008E2F807C803C49F48C8180648C83EF7350
:100C9000E23309F092CFE4E690CFE7FFF9CF8C8101
:100CA00082608C83EF77F4CF01968630910509F04E
:100CB0009ACF81E090E09B838A83F12CE12CA2CF34
:100CC000EC85FD85E80FF91F1491112309F4B1CFCC
:100CD000812F807C803C49F48C818F7B8C831F73B7
:100CE000123309F092CF14E690CF17FFF9CF8C8121
:100CF0008D7F8C831F77F4CF089590E080E0089576
:100D0000FB0101900020E9F73197AF01461B570B1B
:100D1000DC01ED91FC910280F381E02D09941F929A
:100D20000F920FB60F9211242F933F938F939F939F
:100D3000AF93BF938091710190917201A091730163
:100D4000B09174013091700123E0230F2D3758F5D5
:100D50000196A11DB11D20937001809371019093A4
:100D60007201A0937301B093740180917501909109
:100D70007601A0917701B09178010196A11DB11D76
:100D80008093750190937601A0937701B0937801D9
:100D9000BF91AF919F918F913F912F910F900FBE77
:100DA0000F901F90189526E8230F0296A11DB11DE4
:100DB000D2CF1F920F920FB60F9211248F939F9351
:100DC0008091E1009091E100937F9093E10083FF97
:100DD0000FC01092E90091E09093EB001092EC00AC
:100DE00092E39093ED0010927A0198E09093F000D6
:100DF00082FF22C093E09093E9009091F200992342
:100E000019F09AE39093E80090916D01992341F0D5
:100E100090916D01915090936D01911101C05D9879
:100E200090917901992341F090917901915090939B
:100E30007901911101C0289884FF18C08091E200C7
:100E40008E7E81608093E2008091E1008F7E8093AE
:100E5000E10080916E018E7E806180936E019F9192
:100E60008F910F900FBE0F901F90189580FFF7CFB6
:100E70008091E2008E7E80618093E2008091E100AB
:100E80008E7E8093E10080916E018E7E8160E5CF41
:100E90001F920F920FB60F921124CF92DF92EF9212
:100EA000FF920F931F932F933F934F935F936F93F3
:100EB0007F938F939F93AF93BF93EF93FF93CF93C2
:100EC000DF93CDB7DEB76C97DEBFCDBF1092E900E0
:100ED0008091E80083FF25C068E0CE0145960E941E
:100EE000940382EF8093E8008D8987FF39C0909149
:100EF000E80090FFFCCF982F907609F034C19E89CE
:100F00004F89588D2F89F88C911131C0803861F547
:100F100080916F018093F1001092F1008EEF809329
:100F2000E8006C960FB6F894DEBF0FBECDBFDF9120
:100F3000CF91FF91EF91BF91AF919F918F917F9151
:100F40006F915F914F913F912F911F910F91FF9062
:100F5000EF90DF90CF900F900FBE0F901F901895DD
:100F60009EEF9093E800C7CF1092F100D5CF91305B
:100F700059F48111D3CF4130510581F680916F0131
:100F80008D7F80936F01CACF933049F48111C6CF12
:100F90004130510519F680916F018260F2CF953092
:100FA00041F48091E80080FFFCCF20682093E300AB
:100FB000B5CF963009F0A9C00B8D1C8D22E01092A0
:100FC000E90010926B0110926A01F2122EC0109289
:100FD0006901109268010E9408041F8299E09983B8
:100FE000FA8291E09E8390EA98879AEF9987209100
:100FF0006A0130916B01275F3F4F3C832B838D83C8
:101000001092E90010926B0110926A01109369012D
:101010000093680149E050E0BE016F5F7F4F80E0C0
:101020000E94C7020E94080479CF109369010093BF
:1010300068010E94A103DC0112960D911C9101151B
:10104000110509F451C1D801ED91FC910480F5819D
:10105000E02DBE016B5E7F4FC8010995009709F036
:101060003EC1F80100851185EACFF3E0FF120EC002
:101070008F89882309F440C0823061F440E86DE034
:1010800080E191E00E947A09811148CF81E280934A
:10109000EB0047CF813029F440E86BE084E091E039
:1010A000F1CF833099F70E94A103DC011296ED90F5
:1010B000FC908E010F5F1F4F6801E114F10479F07D
:1010C000D701ED91FC910680F781E02DB801C701B1
:1010D0000995080F111DF701E084F184EECFD801C6
:1010E0001C92F60101900020E9F73197BF016C19BD
:1010F0007D0940E0C601C6CF6EEE70E0FB01449171
:1011000050E080E80E94C70209CF973009F4BECFB3
:10111000983021F481E08093F10000CF993009F0FC
:10112000FDCE837009F0B2CFEDE0F1E081E031E077
:1011300096E32191222371F08093E9003093EB0034
:10114000DF0111972C912093EC009093ED008F5FBD
:10115000873079F78EE78093EA001092EA008F8952
:1011600080937A01DBCE8B8D9C8D1092E9001092DA
:101170006B0110926A019093690180936801898DD7
:10118000811192C08E899D89913A49F4813209F08A
:101190007DCF47E050E064E071E080E0B3CF913272
:1011A00009F074CF833269F48F89988DB0E0A0E0A4
:1011B0008093000190930101A0930201B093030179
:1011C000ADCE803269F48091E80082FFFCCF67E009
:1011D00084E091E00E9494038BEF8093E8009ECE20
:1011E000823209F09BCE8F8980930B01EEEFFFE7EF
:1011F000859194918B3F9C4D51F1E0E0F8E0809116
:10120000040190910501A0910601B0910701803B76
:101210009440A105B105F1F480910B0180FD1AC045
:10122000EE3F8AE0F80789F587E797E791838083A7
:101230008091600080936C0188E19BE00FB6F89488
:10124000A895809360000FBE9093600067CEEEEF8C
:10125000FAE0D5CF808191818737974709F05ECE3C
:10126000A8958091600088618093600080916C01F6
:1012700080936000EE3F2AE0F20789F08091FE0A39
:101280009091FF0A9183808349CE80819181873735
:10129000980751F29093FF0A8093FE0AC5CF1092EF
:1012A000FF0A1092FE0A3ACE0E94A103DC011296B8
:1012B0000D911C910115110509F4E8CED801ED91AD
:1012C000FC910190F081E02DBE016B5E7F4FC80163
:1012D0000995811123CEF80100851185EBCF1816F1
:1012E00019060CF41BCED2CEF1E0FF12BECE62EF97
:1012F00070E004CFEF92FF920F931F93CF93DF9391
:10130000F82E192FE62E042F81E0860F880F0E94F9
:10131000990283E00E949902CF2DD12FEC0EFD2E71
:10132000F11CCE15DF05B9F007FF13C0FE01849153
:101330000E949902182F80E00E9499028123219631
:101340008111EFCFDF91CF911F910F91FF90EF901F
:1013500008958881EDCF81E0F5CFCF9310927E0183
:1013600010927D0188EE93E0A0E0B0E080937F01D1
:1013700090938001A0938101B093820187E191E075
:1013800090937C0180937B018FEF9FEF9093880176
:10139000809387011092F5011092F40185E391E0AA
:1013A0009093F3018093F2018091EA01811113C0BF
:1013B0001092E5011092E40185E292E09093E7013A
:1013C0008093E6018FE290E09093E9018093E80139
:1013D00081E08093EA018091DC0181112AC0C1E0A3
:1013E000C093CF01C093D00185ED91E09093D201DD
:1013F0008093D1011092D4011092D30189E291E03F
:101400009093CC018093CB011092D7011092D6011A
:101410001092D9011092D801C093DA01C093DB0178
:1014200081EC8093D5010E94A1030E947D01C093AD
:10143000DC01E091D601F091D7013097E9F484EE18
:1014400091E09093D7018093D6018091D80190913B
:10145000D9012091E8013091E901820F931F909307
:10146000D9018093D80185EA91E09093FF018093A0
:10147000FE01CF910895FC01808191810097D9F7F9
:1014800084EE91E091838083E0CF789484B582608C
:1014900084BD84B5816084BD85B5826085BD85B518
:1014A000816085BD80916E00816080936E00109296
:1014B0008100809181008260809381008091810011
:1014C00081608093810080918000816080938000A2
:1014D0008091910082608093910080919100816061
:1014E0008093910080919000816080939000809122
:1014F000C10084608093C1008091C10082608093AC
:10150000C1008091C10081608093C1008091C300BF
:1015100081608093C3008091C00082608093C0008E
:101520008091C20081608093C20080917A008460C3
:1015300080937A0080917A00826080937A00809113
:101540007A00816080937A0080917A00806880932D
:101550007A0010927A0110926F0110926E018091C0
:10156000D70081608093D70080EA8093D80089B546
:10157000806189BD89B5826089BD09B400FEFDCF57
:101580000E9481028091D8008F7C80618093D80076
:101590008091E000807F8093E0008091E1008E7E6A
:1015A0008093E1008DE08093E200559A209A5D9847
:1015B000289882E00E94550183E00E94550184E052
:1015C0000E94550185E00E94550186E00E94550168
:1015D00087E00E94550188E00E94550189E00E9441
:1015E00055018AE00E9455018BE00E9455018CE074
:1015F0000E9455018DE00E9455018EE00E94550128
:101600008FE00E94550180E10E94550185EA91E03A
:101610009093FF018093FE018FEF9FEF90938801DD
:10162000809387016DE371E08BE791E00E94800673
:1016300069E571E08BE791E00E948006C0E0D0E0B0
:1016400082E00E94ED0167E7892B31F083E00E9480
:10165000ED01892B29F463E782EF91E00E94C10537
:1016600084E00E94ED01892B51F485E00E94ED0198
:10167000019729F461E682EF91E00E94C10585E0BF
:101680000E94ED01892B51F484E00E94ED01019745
:1016900029F464E682EF91E00E94C10586E00E9491
:1016A000ED01892B29F465E782EF91E00E94C105E5
:1016B00087E00E94ED01892B29F469E682EF91E031
:1016C0000E94C10588E00E94ED01892B29F46AE699
:1016D00082EF91E00E94C10589E00E94ED01892B13
:1016E00029F46BE682EF91E00E94C1058AE00E9436
:1016F000ED01892B29F46FE682EF91E00E94C1058C
:101700008BE00E94ED01892B29F46CE682EF91E0D9
:101710000E94C1058CE00E94ED01892B29F460E74D
:1017200082EF91E00E94C1058DE00E94ED01892BBE
:1017300029F46BE382EF91E00E94C1058DE00E94E5
:10174000ED01892B29F46BE382EF91E00E94C10542
:101750008EE00E94ED01892B31F469E571E082EFA2
:1017600091E00E9480068FE00E94ED01892B29F410
:101770006CE582EF91E00E94C10580E10E94ED01DD
:10178000892B29F468E082EF91E00E94C10520973F
:1017900009F456CF0E94000053CFEE0FFF1F0590B3
:0A17A000F491E02D0994F894FFCFB6
:1017AA00FFFFFFFF00E100000000000000C1808190
:1017BA00000000000000004F04390470046504B7FB
:1017CA00047504930400000000D1044A050F05F4CF
:1017DA000400000000C10595057D067C06426F6184
:1017EA00726420686173206265656E20696E69742F
:0C17FA0069616C697A65642E000D0A00BC
:00000001FF
